{
  "contractName": "DigiArt",
  "abi": [
    {
      "inputs": [],
      "stateMutability": "nonpayable",
      "type": "constructor"
    },
    {
      "anonymous": false,
      "inputs": [
        {
          "indexed": true,
          "internalType": "address",
          "name": "owner",
          "type": "address"
        },
        {
          "indexed": true,
          "internalType": "address",
          "name": "approved",
          "type": "address"
        },
        {
          "indexed": true,
          "internalType": "uint256",
          "name": "tokenId",
          "type": "uint256"
        }
      ],
      "name": "Approval",
      "type": "event"
    },
    {
      "anonymous": false,
      "inputs": [
        {
          "indexed": true,
          "internalType": "address",
          "name": "owner",
          "type": "address"
        },
        {
          "indexed": true,
          "internalType": "address",
          "name": "operator",
          "type": "address"
        },
        {
          "indexed": false,
          "internalType": "bool",
          "name": "approved",
          "type": "bool"
        }
      ],
      "name": "ApprovalForAll",
      "type": "event"
    },
    {
      "anonymous": false,
      "inputs": [
        {
          "indexed": true,
          "internalType": "address",
          "name": "from",
          "type": "address"
        },
        {
          "indexed": true,
          "internalType": "address",
          "name": "to",
          "type": "address"
        },
        {
          "indexed": true,
          "internalType": "uint256",
          "name": "tokenId",
          "type": "uint256"
        }
      ],
      "name": "Transfer",
      "type": "event"
    },
    {
      "inputs": [
        {
          "internalType": "uint256",
          "name": "",
          "type": "uint256"
        }
      ],
      "name": "allArtPieces",
      "outputs": [
        {
          "internalType": "uint256",
          "name": "tokenId",
          "type": "uint256"
        },
        {
          "internalType": "string",
          "name": "tokenName",
          "type": "string"
        },
        {
          "internalType": "string",
          "name": "tokenURI",
          "type": "string"
        },
        {
          "internalType": "address",
          "name": "mintedBy",
          "type": "address"
        },
        {
          "internalType": "address",
          "name": "currentOwner",
          "type": "address"
        },
        {
          "internalType": "address",
          "name": "previousOwner",
          "type": "address"
        },
        {
          "internalType": "uint256",
          "name": "price",
          "type": "uint256"
        },
        {
          "internalType": "uint256",
          "name": "numberOfTransfers",
          "type": "uint256"
        },
        {
          "internalType": "bool",
          "name": "forSale",
          "type": "bool"
        }
      ],
      "stateMutability": "view",
      "type": "function",
      "constant": true
    },
    {
      "inputs": [
        {
          "internalType": "address",
          "name": "to",
          "type": "address"
        },
        {
          "internalType": "uint256",
          "name": "tokenId",
          "type": "uint256"
        }
      ],
      "name": "approve",
      "outputs": [],
      "stateMutability": "nonpayable",
      "type": "function"
    },
    {
      "inputs": [],
      "name": "artCounter",
      "outputs": [
        {
          "internalType": "uint256",
          "name": "",
          "type": "uint256"
        }
      ],
      "stateMutability": "view",
      "type": "function",
      "constant": true
    },
    {
      "inputs": [
        {
          "internalType": "address",
          "name": "owner",
          "type": "address"
        }
      ],
      "name": "balanceOf",
      "outputs": [
        {
          "internalType": "uint256",
          "name": "",
          "type": "uint256"
        }
      ],
      "stateMutability": "view",
      "type": "function",
      "constant": true
    },
    {
      "inputs": [],
      "name": "baseURI",
      "outputs": [
        {
          "internalType": "string",
          "name": "",
          "type": "string"
        }
      ],
      "stateMutability": "view",
      "type": "function",
      "constant": true
    },
    {
      "inputs": [],
      "name": "collectionName",
      "outputs": [
        {
          "internalType": "string",
          "name": "",
          "type": "string"
        }
      ],
      "stateMutability": "view",
      "type": "function",
      "constant": true
    },
    {
      "inputs": [],
      "name": "collectionNameSymbol",
      "outputs": [
        {
          "internalType": "string",
          "name": "",
          "type": "string"
        }
      ],
      "stateMutability": "view",
      "type": "function",
      "constant": true
    },
    {
      "inputs": [
        {
          "internalType": "string",
          "name": "",
          "type": "string"
        }
      ],
      "name": "colorExists",
      "outputs": [
        {
          "internalType": "bool",
          "name": "",
          "type": "bool"
        }
      ],
      "stateMutability": "view",
      "type": "function",
      "constant": true
    },
    {
      "inputs": [
        {
          "internalType": "uint256",
          "name": "tokenId",
          "type": "uint256"
        }
      ],
      "name": "getApproved",
      "outputs": [
        {
          "internalType": "address",
          "name": "",
          "type": "address"
        }
      ],
      "stateMutability": "view",
      "type": "function",
      "constant": true
    },
    {
      "inputs": [
        {
          "internalType": "address",
          "name": "owner",
          "type": "address"
        },
        {
          "internalType": "address",
          "name": "operator",
          "type": "address"
        }
      ],
      "name": "isApprovedForAll",
      "outputs": [
        {
          "internalType": "bool",
          "name": "",
          "type": "bool"
        }
      ],
      "stateMutability": "view",
      "type": "function",
      "constant": true
    },
    {
      "inputs": [],
      "name": "name",
      "outputs": [
        {
          "internalType": "string",
          "name": "",
          "type": "string"
        }
      ],
      "stateMutability": "view",
      "type": "function",
      "constant": true
    },
    {
      "inputs": [
        {
          "internalType": "uint256",
          "name": "tokenId",
          "type": "uint256"
        }
      ],
      "name": "ownerOf",
      "outputs": [
        {
          "internalType": "address",
          "name": "",
          "type": "address"
        }
      ],
      "stateMutability": "view",
      "type": "function",
      "constant": true
    },
    {
      "inputs": [
        {
          "internalType": "address",
          "name": "from",
          "type": "address"
        },
        {
          "internalType": "address",
          "name": "to",
          "type": "address"
        },
        {
          "internalType": "uint256",
          "name": "tokenId",
          "type": "uint256"
        }
      ],
      "name": "safeTransferFrom",
      "outputs": [],
      "stateMutability": "nonpayable",
      "type": "function"
    },
    {
      "inputs": [
        {
          "internalType": "address",
          "name": "from",
          "type": "address"
        },
        {
          "internalType": "address",
          "name": "to",
          "type": "address"
        },
        {
          "internalType": "uint256",
          "name": "tokenId",
          "type": "uint256"
        },
        {
          "internalType": "bytes",
          "name": "_data",
          "type": "bytes"
        }
      ],
      "name": "safeTransferFrom",
      "outputs": [],
      "stateMutability": "nonpayable",
      "type": "function"
    },
    {
      "inputs": [
        {
          "internalType": "address",
          "name": "operator",
          "type": "address"
        },
        {
          "internalType": "bool",
          "name": "approved",
          "type": "bool"
        }
      ],
      "name": "setApprovalForAll",
      "outputs": [],
      "stateMutability": "nonpayable",
      "type": "function"
    },
    {
      "inputs": [
        {
          "internalType": "bytes4",
          "name": "interfaceId",
          "type": "bytes4"
        }
      ],
      "name": "supportsInterface",
      "outputs": [
        {
          "internalType": "bool",
          "name": "",
          "type": "bool"
        }
      ],
      "stateMutability": "view",
      "type": "function",
      "constant": true
    },
    {
      "inputs": [],
      "name": "symbol",
      "outputs": [
        {
          "internalType": "string",
          "name": "",
          "type": "string"
        }
      ],
      "stateMutability": "view",
      "type": "function",
      "constant": true
    },
    {
      "inputs": [
        {
          "internalType": "uint256",
          "name": "index",
          "type": "uint256"
        }
      ],
      "name": "tokenByIndex",
      "outputs": [
        {
          "internalType": "uint256",
          "name": "",
          "type": "uint256"
        }
      ],
      "stateMutability": "view",
      "type": "function",
      "constant": true
    },
    {
      "inputs": [
        {
          "internalType": "string",
          "name": "",
          "type": "string"
        }
      ],
      "name": "tokenNameExists",
      "outputs": [
        {
          "internalType": "bool",
          "name": "",
          "type": "bool"
        }
      ],
      "stateMutability": "view",
      "type": "function",
      "constant": true
    },
    {
      "inputs": [
        {
          "internalType": "address",
          "name": "owner",
          "type": "address"
        },
        {
          "internalType": "uint256",
          "name": "index",
          "type": "uint256"
        }
      ],
      "name": "tokenOfOwnerByIndex",
      "outputs": [
        {
          "internalType": "uint256",
          "name": "",
          "type": "uint256"
        }
      ],
      "stateMutability": "view",
      "type": "function",
      "constant": true
    },
    {
      "inputs": [
        {
          "internalType": "uint256",
          "name": "tokenId",
          "type": "uint256"
        }
      ],
      "name": "tokenURI",
      "outputs": [
        {
          "internalType": "string",
          "name": "",
          "type": "string"
        }
      ],
      "stateMutability": "view",
      "type": "function",
      "constant": true
    },
    {
      "inputs": [
        {
          "internalType": "string",
          "name": "",
          "type": "string"
        }
      ],
      "name": "tokenURIExists",
      "outputs": [
        {
          "internalType": "bool",
          "name": "",
          "type": "bool"
        }
      ],
      "stateMutability": "view",
      "type": "function",
      "constant": true
    },
    {
      "inputs": [],
      "name": "totalSupply",
      "outputs": [
        {
          "internalType": "uint256",
          "name": "",
          "type": "uint256"
        }
      ],
      "stateMutability": "view",
      "type": "function",
      "constant": true
    },
    {
      "inputs": [
        {
          "internalType": "address",
          "name": "from",
          "type": "address"
        },
        {
          "internalType": "address",
          "name": "to",
          "type": "address"
        },
        {
          "internalType": "uint256",
          "name": "tokenId",
          "type": "uint256"
        }
      ],
      "name": "transferFrom",
      "outputs": [],
      "stateMutability": "nonpayable",
      "type": "function"
    },
    {
      "inputs": [
        {
          "internalType": "string",
          "name": "_name",
          "type": "string"
        },
        {
          "internalType": "string",
          "name": "_tokenURI",
          "type": "string"
        },
        {
          "internalType": "uint256",
          "name": "_price",
          "type": "uint256"
        },
        {
          "internalType": "string[]",
          "name": "_colors",
          "type": "string[]"
        }
      ],
      "name": "mintNFT",
      "outputs": [],
      "stateMutability": "nonpayable",
      "type": "function"
    },
    {
      "inputs": [
        {
          "internalType": "uint256",
          "name": "_tokenId",
          "type": "uint256"
        }
      ],
      "name": "getTokenOwner",
      "outputs": [
        {
          "internalType": "address",
          "name": "",
          "type": "address"
        }
      ],
      "stateMutability": "view",
      "type": "function",
      "constant": true
    },
    {
      "inputs": [
        {
          "internalType": "uint256",
          "name": "_tokenId",
          "type": "uint256"
        }
      ],
      "name": "getTokenMetaData",
      "outputs": [
        {
          "internalType": "string",
          "name": "",
          "type": "string"
        }
      ],
      "stateMutability": "view",
      "type": "function",
      "constant": true
    },
    {
      "inputs": [],
      "name": "getNumberOfTokensMinted",
      "outputs": [
        {
          "internalType": "uint256",
          "name": "",
          "type": "uint256"
        }
      ],
      "stateMutability": "view",
      "type": "function",
      "constant": true
    },
    {
      "inputs": [
        {
          "internalType": "address",
          "name": "_owner",
          "type": "address"
        }
      ],
      "name": "getTotalNumberOfTokensOwnedByAnAddress",
      "outputs": [
        {
          "internalType": "uint256",
          "name": "",
          "type": "uint256"
        }
      ],
      "stateMutability": "view",
      "type": "function",
      "constant": true
    },
    {
      "inputs": [
        {
          "internalType": "uint256",
          "name": "_tokenId",
          "type": "uint256"
        }
      ],
      "name": "getTokenExists",
      "outputs": [
        {
          "internalType": "bool",
          "name": "",
          "type": "bool"
        }
      ],
      "stateMutability": "view",
      "type": "function",
      "constant": true
    },
    {
      "inputs": [
        {
          "internalType": "uint256",
          "name": "_tokenId",
          "type": "uint256"
        }
      ],
      "name": "buyToken",
      "outputs": [],
      "stateMutability": "payable",
      "type": "function",
      "payable": true
    },
    {
      "inputs": [
        {
          "internalType": "uint256",
          "name": "_tokenId",
          "type": "uint256"
        },
        {
          "internalType": "uint256",
          "name": "_newPrice",
          "type": "uint256"
        }
      ],
      "name": "changeTokenPrice",
      "outputs": [],
      "stateMutability": "nonpayable",
      "type": "function"
    },
    {
      "inputs": [
        {
          "internalType": "uint256",
          "name": "_tokenId",
          "type": "uint256"
        }
      ],
      "name": "toggleForSale",
      "outputs": [],
      "stateMutability": "nonpayable",
      "type": "function"
    }
  ],
  "bytecode": "0x60806040523480156200001157600080fd5b506040518060400160405280600e81526020017f41727420436f6c6c656374696f6e0000000000000000000000000000000000008152506040518060400160405280600281526020017f4441000000000000000000000000000000000000000000000000000000000000815250620000bb6301ffc9a77c0100000000000000000000000000000000000000000000000000000000026200020e640100000000026401000000009004565b8160069080519060200190620000d392919062000436565b508060079080519060200190620000ec92919062000436565b506200012a6380ac58cd7c0100000000000000000000000000000000000000000000000000000000026200020e640100000000026401000000009004565b62000167635b5e139f7c0100000000000000000000000000000000000000000000000000000000026200020e640100000000026401000000009004565b620001a463780e9d637c0100000000000000000000000000000000000000000000000000000000026200020e640100000000026401000000009004565b5050620001bf62000302640100000000026401000000009004565b600a9080519060200190620001d692919062000436565b50620001f06200039c640100000000026401000000009004565b600b90805190602001906200020792919062000436565b50620005c0565b63ffffffff7c010000000000000000000000000000000000000000000000000000000002817bffffffffffffffffffffffffffffffffffffffffffffffffffffffff1916141562000296576040517f08c379a00000000000000000000000000000000000000000000000000000000081526004016200028d9062000528565b60405180910390fd5b6001600080837bffffffffffffffffffffffffffffffffffffffffffffffffffffffff19167bffffffffffffffffffffffffffffffffffffffffffffffffffffffff1916815260200190815260200160002060006101000a81548160ff02191690831515021790555050565b60606006805462000313906200055b565b80601f016020809104026020016040519081016040528092919081815260200182805462000341906200055b565b8015620003925780601f10620003665761010080835404028352916020019162000392565b820191906000526020600020905b8154815290600101906020018083116200037457829003601f168201915b5050505050905090565b606060078054620003ad906200055b565b80601f0160208091040260200160405190810160405280929190818152602001828054620003db906200055b565b80156200042c5780601f1062000400576101008083540402835291602001916200042c565b820191906000526020600020905b8154815290600101906020018083116200040e57829003601f168201915b5050505050905090565b82805462000444906200055b565b90600052602060002090601f016020900481019282620004685760008555620004b4565b82601f106200048357805160ff1916838001178555620004b4565b82800160010185558215620004b4579182015b82811115620004b357825182559160200191906001019062000496565b5b509050620004c39190620004c7565b5090565b5b80821115620004e2576000816000905550600101620004c8565b5090565b6000620004f5601c836200054a565b91507f4552433136353a20696e76616c696420696e74657266616365206964000000006000830152602082019050919050565b600060208201905081810360008301526200054381620004e6565b9050919050565b600082825260208201905092915050565b600060028204905060018216806200057457607f821691505b602082108114156200058b576200058a62000591565b5b50919050565b7f4e487b7100000000000000000000000000000000000000000000000000000000600052602260045260246000fd5b61525880620005d06000396000f3fe60806040526004361061020b576000357c01000000000000000000000000000000000000000000000000000000009004806367c623cf1161012a578063a46b1fac116100bd578063c87b56dd1161008c578063c87b56dd146107ab578063ca05fca9146107e8578063cc151f3a14610811578063e5326ab11461083c578063e985e9c5146108675761020b565b8063a46b1fac146106dd578063a5cd761f1461071a578063a9ff382214610757578063b88d4fde146107825761020b565b80638d44807c116100f95780638d44807c1461062357806395d89b4114610660578063a22cb4651461068b578063a32018b9146106b45761020b565b806367c623cf146105535780636c0360eb146105905780636f9507f9146105bb57806370a08231146105e65761020b565b80632f745c59116101a25780634f6ccce7116101715780634f6ccce71461046b57806362e8e8ac146104a857806363415fe5146104d15780636352211e146105165761020b565b80632f745c591461038b57806342842e0e146103c857806343902850146103f157806343d32ae71461042e5761020b565b8063142687f3116101de578063142687f3146102de57806318160ddd1461031b57806323b872dd146103465780632d296bf11461036f5761020b565b806301ffc9a71461021057806306fdde031461024d578063081812fc14610278578063095ea7b3146102b5575b600080fd5b34801561021c57600080fd5b5061023760048036038101906102329190613fba565b6108a4565b60405161024491906149ee565b60405180910390f35b34801561025957600080fd5b5061026261090b565b60405161026f9190614a09565b60405180910390f35b34801561028457600080fd5b5061029f600480360381019061029a91906140fd565b61099d565b6040516102ac9190614987565b60405180910390f35b3480156102c157600080fd5b506102dc60048036038101906102d79190613f7e565b610a22565b005b3480156102ea57600080fd5b50610305600480360381019061030091906140fd565b610b3a565b60405161031291906149ee565b60405180910390f35b34801561032757600080fd5b50610330610b51565b60405161033d9190614c6b565b60405180910390f35b34801561035257600080fd5b5061036d60048036038101906103689190613e78565b610b62565b005b610389600480360381019061038491906140fd565b610bc2565b005b34801561039757600080fd5b506103b260048036038101906103ad9190613f7e565b611184565b6040516103bf9190614c6b565b60405180910390f35b3480156103d457600080fd5b506103ef60048036038101906103ea9190613e78565b6111df565b005b3480156103fd57600080fd5b5061041860048036038101906104139190613e13565b6111ff565b6040516104259190614c6b565b60405180910390f35b34801561043a57600080fd5b506104556004803603810190610450919061400c565b611216565b60405161046291906149ee565b60405180910390f35b34801561047757600080fd5b50610492600480360381019061048d91906140fd565b61124c565b60405161049f9190614c6b565b60405180910390f35b3480156104b457600080fd5b506104cf60048036038101906104ca9190614126565b61126f565b005b3480156104dd57600080fd5b506104f860048036038101906104f391906140fd565b6116f7565b60405161050d99989796959493929190614c86565b60405180910390f35b34801561052257600080fd5b5061053d600480360381019061053891906140fd565b6118c2565b60405161054a9190614987565b60405180910390f35b34801561055f57600080fd5b5061057a600480360381019061057591906140fd565b6118f9565b6040516105879190614a09565b60405180910390f35b34801561059c57600080fd5b506105a5611911565b6040516105b29190614a09565b60405180910390f35b3480156105c757600080fd5b506105d06119a3565b6040516105dd9190614a09565b60405180910390f35b3480156105f257600080fd5b5061060d60048036038101906106089190613e13565b611a31565b60405161061a9190614c6b565b60405180910390f35b34801561062f57600080fd5b5061064a6004803603810190610645919061400c565b611af0565b60405161065791906149ee565b60405180910390f35b34801561066c57600080fd5b50610675611b26565b6040516106829190614a09565b60405180910390f35b34801561069757600080fd5b506106b260048036038101906106ad9190613f42565b611bb8565b005b3480156106c057600080fd5b506106db60048036038101906106d691906140fd565b611d39565b005b3480156106e957600080fd5b5061070460048036038101906106ff919061400c565b6121eb565b60405161071191906149ee565b60405180910390f35b34801561072657600080fd5b50610741600480360381019061073c91906140fd565b612221565b60405161074e9190614987565b60405180910390f35b34801561076357600080fd5b5061076c612238565b6040516107799190614c6b565b60405180910390f35b34801561078e57600080fd5b506107a960048036038101906107a49190613ec7565b61223e565b005b3480156107b757600080fd5b506107d260048036038101906107cd91906140fd565b6122a0565b6040516107df9190614a09565b60405180910390f35b3480156107f457600080fd5b5061080f600480360381019061080a919061404d565b612413565b005b34801561081d57600080fd5b506108266128af565b6040516108339190614c6b565b60405180910390f35b34801561084857600080fd5b506108516128c3565b60405161085e9190614a09565b60405180910390f35b34801561087357600080fd5b5061088e60048036038101906108899190613e3c565b612951565b60405161089b91906149ee565b60405180910390f35b6000806000837bffffffffffffffffffffffffffffffffffffffffffffffffffffffff19167bffffffffffffffffffffffffffffffffffffffffffffffffffffffff1916815260200190815260200160002060009054906101000a900460ff169050919050565b60606006805461091a90614ff2565b80601f016020809104026020016040519081016040528092919081815260200182805461094690614ff2565b80156109935780601f1061096857610100808354040283529160200191610993565b820191906000526020600020905b81548152906001019060200180831161097657829003601f168201915b5050505050905090565b60006109a8826129e5565b6109e7576040517f08c379a00000000000000000000000000000000000000000000000000000000081526004016109de90614b8b565b60405180910390fd5b6004600083815260200190815260200160002060009054906101000a900473ffffffffffffffffffffffffffffffffffffffff169050919050565b6000610a2d826118c2565b90508073ffffffffffffffffffffffffffffffffffffffff168373ffffffffffffffffffffffffffffffffffffffff161415610a9e576040517f08c379a0000000000000000000000000000000000000000000000000000000008152600401610a9590614c0b565b60405180910390fd5b8073ffffffffffffffffffffffffffffffffffffffff16610abd612a02565b73ffffffffffffffffffffffffffffffffffffffff161480610aec5750610aeb81610ae6612a02565b612951565b5b610b2b576040517f08c379a0000000000000000000000000000000000000000000000000000000008152600401610b2290614b0b565b60405180910390fd5b610b358383612a0a565b505050565b600080610b46836129e5565b905080915050919050565b6000610b5d6002612ac3565b905090565b610b73610b6d612a02565b82612ad8565b610bb2576040517f08c379a0000000000000000000000000000000000000000000000000000000008152600401610ba990614c2b565b60405180910390fd5b610bbd838383612bb6565b505050565b600073ffffffffffffffffffffffffffffffffffffffff163373ffffffffffffffffffffffffffffffffffffffff161415610bfc57600080fd5b610c05816129e5565b610c0e57600080fd5b6000610c19826118c2565b9050600073ffffffffffffffffffffffffffffffffffffffff168173ffffffffffffffffffffffffffffffffffffffff161415610c5557600080fd5b3373ffffffffffffffffffffffffffffffffffffffff168173ffffffffffffffffffffffffffffffffffffffff161415610c8e57600080fd5b6000600d60008481526020019081526020016000206040518061012001604052908160008201548152602001600182018054610cc990614ff2565b80601f0160208091040260200160405190810160405280929190818152602001828054610cf590614ff2565b8015610d425780601f10610d1757610100808354040283529160200191610d42565b820191906000526020600020905b815481529060010190602001808311610d2557829003601f168201915b50505050508152602001600282018054610d5b90614ff2565b80601f0160208091040260200160405190810160405280929190818152602001828054610d8790614ff2565b8015610dd45780601f10610da957610100808354040283529160200191610dd4565b820191906000526020600020905b815481529060010190602001808311610db757829003601f168201915b505050505081526020016003820160009054906101000a900473ffffffffffffffffffffffffffffffffffffffff1673ffffffffffffffffffffffffffffffffffffffff1673ffffffffffffffffffffffffffffffffffffffff1681526020016004820160009054906101000a900473ffffffffffffffffffffffffffffffffffffffff1673ffffffffffffffffffffffffffffffffffffffff1673ffffffffffffffffffffffffffffffffffffffff1681526020016005820160009054906101000a900473ffffffffffffffffffffffffffffffffffffffff1673ffffffffffffffffffffffffffffffffffffffff1673ffffffffffffffffffffffffffffffffffffffff16815260200160068201548152602001600782015481526020016008820160009054906101000a900460ff16151515158152505090508060c00151341015610f2157600080fd5b806101000151610f3057600080fd5b610f3b823385612bb6565b6000816080015190508073ffffffffffffffffffffffffffffffffffffffff166108fc349081150290604051600060405180830381858888f19350505050158015610f8a573d6000803e3d6000fd5b5081608001518260a0019073ffffffffffffffffffffffffffffffffffffffff16908173ffffffffffffffffffffffffffffffffffffffff168152505033826080019073ffffffffffffffffffffffffffffffffffffffff16908173ffffffffffffffffffffffffffffffffffffffff168152505060018260e0018181516110129190614e57565b9150818152505081600d6000868152602001908152602001600020600082015181600001556020820151816001019080519060200190611053929190613bed565b506040820151816002019080519060200190611070929190613bed565b5060608201518160030160006101000a81548173ffffffffffffffffffffffffffffffffffffffff021916908373ffffffffffffffffffffffffffffffffffffffff16021790555060808201518160040160006101000a81548173ffffffffffffffffffffffffffffffffffffffff021916908373ffffffffffffffffffffffffffffffffffffffff16021790555060a08201518160050160006101000a81548173ffffffffffffffffffffffffffffffffffffffff021916908373ffffffffffffffffffffffffffffffffffffffff16021790555060c0820151816006015560e082015181600701556101008201518160080160006101000a81548160ff02191690831515021790555090505050505050565b60006111d782600160008673ffffffffffffffffffffffffffffffffffffffff1673ffffffffffffffffffffffffffffffffffffffff168152602001908152602001600020612dcd90919063ffffffff16565b905092915050565b6111fa8383836040518060200160405280600081525061223e565b505050565b60008061120b83611a31565b905080915050919050565b6010818051602081018201805184825260208301602085012081835280955050505050506000915054906101000a900460ff1681565b600080611263836002612de890919063ffffffff16565b50905080915050919050565b600073ffffffffffffffffffffffffffffffffffffffff163373ffffffffffffffffffffffffffffffffffffffff1614156112a957600080fd5b6112b2826129e5565b6112bb57600080fd5b60006112c6836118c2565b90503373ffffffffffffffffffffffffffffffffffffffff168173ffffffffffffffffffffffffffffffffffffffff161461130057600080fd5b6000600d6000858152602001908152602001600020604051806101200160405290816000820154815260200160018201805461133b90614ff2565b80601f016020809104026020016040519081016040528092919081815260200182805461136790614ff2565b80156113b45780601f10611389576101008083540402835291602001916113b4565b820191906000526020600020905b81548152906001019060200180831161139757829003601f168201915b505050505081526020016002820180546113cd90614ff2565b80601f01602080910402602001604051908101604052809291908181526020018280546113f990614ff2565b80156114465780601f1061141b57610100808354040283529160200191611446565b820191906000526020600020905b81548152906001019060200180831161142957829003601f168201915b505050505081526020016003820160009054906101000a900473ffffffffffffffffffffffffffffffffffffffff1673ffffffffffffffffffffffffffffffffffffffff1673ffffffffffffffffffffffffffffffffffffffff1681526020016004820160009054906101000a900473ffffffffffffffffffffffffffffffffffffffff1673ffffffffffffffffffffffffffffffffffffffff1673ffffffffffffffffffffffffffffffffffffffff1681526020016005820160009054906101000a900473ffffffffffffffffffffffffffffffffffffffff1673ffffffffffffffffffffffffffffffffffffffff1673ffffffffffffffffffffffffffffffffffffffff16815260200160068201548152602001600782015481526020016008820160009054906101000a900460ff1615151515815250509050828160c001818152505080600d60008681526020019081526020016000206000820151816000015560208201518160010190805190602001906115c6929190613bed565b5060408201518160020190805190602001906115e3929190613bed565b5060608201518160030160006101000a81548173ffffffffffffffffffffffffffffffffffffffff021916908373ffffffffffffffffffffffffffffffffffffffff16021790555060808201518160040160006101000a81548173ffffffffffffffffffffffffffffffffffffffff021916908373ffffffffffffffffffffffffffffffffffffffff16021790555060a08201518160050160006101000a81548173ffffffffffffffffffffffffffffffffffffffff021916908373ffffffffffffffffffffffffffffffffffffffff16021790555060c0820151816006015560e082015181600701556101008201518160080160006101000a81548160ff02191690831515021790555090505050505050565b600d60205280600052604060002060009150905080600001549080600101805461172090614ff2565b80601f016020809104026020016040519081016040528092919081815260200182805461174c90614ff2565b80156117995780601f1061176e57610100808354040283529160200191611799565b820191906000526020600020905b81548152906001019060200180831161177c57829003601f168201915b5050505050908060020180546117ae90614ff2565b80601f01602080910402602001604051908101604052809291908181526020018280546117da90614ff2565b80156118275780601f106117fc57610100808354040283529160200191611827565b820191906000526020600020905b81548152906001019060200180831161180a57829003601f168201915b5050505050908060030160009054906101000a900473ffffffffffffffffffffffffffffffffffffffff16908060040160009054906101000a900473ffffffffffffffffffffffffffffffffffffffff16908060050160009054906101000a900473ffffffffffffffffffffffffffffffffffffffff16908060060154908060070154908060080160009054906101000a900460ff16905089565b60006118f2826040518060600160405280602981526020016151fa602991396002612e169092919063ffffffff16565b9050919050565b60606000611906836122a0565b905080915050919050565b60606009805461192090614ff2565b80601f016020809104026020016040519081016040528092919081815260200182805461194c90614ff2565b80156119995780601f1061196e57610100808354040283529160200191611999565b820191906000526020600020905b81548152906001019060200180831161197c57829003601f168201915b5050505050905090565b600b80546119b090614ff2565b80601f01602080910402602001604051908101604052809291908181526020018280546119dc90614ff2565b8015611a295780601f106119fe57610100808354040283529160200191611a29565b820191906000526020600020905b815481529060010190602001808311611a0c57829003601f168201915b505050505081565b60008073ffffffffffffffffffffffffffffffffffffffff168273ffffffffffffffffffffffffffffffffffffffff161415611aa2576040517f08c379a0000000000000000000000000000000000000000000000000000000008152600401611a9990614b2b565b60405180910390fd5b611ae9600160008473ffffffffffffffffffffffffffffffffffffffff1673ffffffffffffffffffffffffffffffffffffffff168152602001908152602001600020612e36565b9050919050565b600f818051602081018201805184825260208301602085012081835280955050505050506000915054906101000a900460ff1681565b606060078054611b3590614ff2565b80601f0160208091040260200160405190810160405280929190818152602001828054611b6190614ff2565b8015611bae5780601f10611b8357610100808354040283529160200191611bae565b820191906000526020600020905b815481529060010190602001808311611b9157829003601f168201915b5050505050905090565b611bc0612a02565b73ffffffffffffffffffffffffffffffffffffffff168273ffffffffffffffffffffffffffffffffffffffff161415611c2e576040517f08c379a0000000000000000000000000000000000000000000000000000000008152600401611c2590614aab565b60405180910390fd5b8060056000611c3b612a02565b73ffffffffffffffffffffffffffffffffffffffff1673ffffffffffffffffffffffffffffffffffffffff16815260200190815260200160002060008473ffffffffffffffffffffffffffffffffffffffff1673ffffffffffffffffffffffffffffffffffffffff16815260200190815260200160002060006101000a81548160ff0219169083151502179055508173ffffffffffffffffffffffffffffffffffffffff16611ce8612a02565b73ffffffffffffffffffffffffffffffffffffffff167f17307eab39ab6107e8899845ad3d59bd9653f200f220920489ca2b5937696c3183604051611d2d91906149ee565b60405180910390a35050565b600073ffffffffffffffffffffffffffffffffffffffff163373ffffffffffffffffffffffffffffffffffffffff161415611d7357600080fd5b611d7c816129e5565b611d8557600080fd5b6000611d90826118c2565b90503373ffffffffffffffffffffffffffffffffffffffff168173ffffffffffffffffffffffffffffffffffffffff1614611dca57600080fd5b6000600d60008481526020019081526020016000206040518061012001604052908160008201548152602001600182018054611e0590614ff2565b80601f0160208091040260200160405190810160405280929190818152602001828054611e3190614ff2565b8015611e7e5780601f10611e5357610100808354040283529160200191611e7e565b820191906000526020600020905b815481529060010190602001808311611e6157829003601f168201915b50505050508152602001600282018054611e9790614ff2565b80601f0160208091040260200160405190810160405280929190818152602001828054611ec390614ff2565b8015611f105780601f10611ee557610100808354040283529160200191611f10565b820191906000526020600020905b815481529060010190602001808311611ef357829003601f168201915b505050505081526020016003820160009054906101000a900473ffffffffffffffffffffffffffffffffffffffff1673ffffffffffffffffffffffffffffffffffffffff1673ffffffffffffffffffffffffffffffffffffffff1681526020016004820160009054906101000a900473ffffffffffffffffffffffffffffffffffffffff1673ffffffffffffffffffffffffffffffffffffffff1673ffffffffffffffffffffffffffffffffffffffff1681526020016005820160009054906101000a900473ffffffffffffffffffffffffffffffffffffffff1673ffffffffffffffffffffffffffffffffffffffff1673ffffffffffffffffffffffffffffffffffffffff16815260200160068201548152602001600782015481526020016008820160009054906101000a900460ff16151515158152505090508061010001511561206e57600081610100019015159081151581525050612081565b6001816101000190151590811515815250505b80600d60008581526020019081526020016000206000820151816000015560208201518160010190805190602001906120bb929190613bed565b5060408201518160020190805190602001906120d8929190613bed565b5060608201518160030160006101000a81548173ffffffffffffffffffffffffffffffffffffffff021916908373ffffffffffffffffffffffffffffffffffffffff16021790555060808201518160040160006101000a81548173ffffffffffffffffffffffffffffffffffffffff021916908373ffffffffffffffffffffffffffffffffffffffff16021790555060a08201518160050160006101000a81548173ffffffffffffffffffffffffffffffffffffffff021916908373ffffffffffffffffffffffffffffffffffffffff16021790555060c0820151816006015560e082015181600701556101008201518160080160006101000a81548160ff021916908315150217905550905050505050565b600e818051602081018201805184825260208301602085012081835280955050505050506000915054906101000a900460ff1681565b60008061222d836118c2565b905080915050919050565b600c5481565b61224f612249612a02565b83612ad8565b61228e576040517f08c379a000000000000000000000000000000000000000000000000000000000815260040161228590614c2b565b60405180910390fd5b61229a84848484612e4b565b50505050565b60606122ab826129e5565b6122ea576040517f08c379a00000000000000000000000000000000000000000000000000000000081526004016122e190614beb565b60405180910390fd5b600060086000848152602001908152602001600020805461230a90614ff2565b80601f016020809104026020016040519081016040528092919081815260200182805461233690614ff2565b80156123835780601f1061235857610100808354040283529160200191612383565b820191906000526020600020905b81548152906001019060200180831161236657829003601f168201915b505050505090506000612394611911565b90506000815114156123aa57819250505061240e565b6000825111156123df5780826040516020016123c7929190614963565b6040516020818303038152906040529250505061240e565b806123e985612ea7565b6040516020016123fa929190614963565b604051602081830303815290604052925050505b919050565b600073ffffffffffffffffffffffffffffffffffffffff163373ffffffffffffffffffffffffffffffffffffffff16141561244d57600080fd5b600c600081548092919061246090615024565b9190505550612470600c546129e5565b1561247a57600080fd5b60005b8282905081101561251c57600f8383838181106124c3577f4e487b7100000000000000000000000000000000000000000000000000000000600052603260045260246000fd5b90506020028101906124d59190614d21565b6040516124e3929190614933565b908152602001604051809103902060009054906101000a900460ff161561250957600080fd5b808061251490615024565b91505061247d565b5060108460405161252d919061494c565b908152602001604051809103902060009054906101000a900460ff161561255357600080fd5b600e85604051612563919061494c565b908152602001604051809103902060009054906101000a900460ff161561258957600080fd5b61259533600c54613085565b6125a1600c5485613213565b60005b82829050811015612644576001600f8484848181106125ec577f4e487b7100000000000000000000000000000000000000000000000000000000600052603260045260246000fd5b90506020028101906125fe9190614d21565b60405161260c929190614933565b908152602001604051809103902060006101000a81548160ff021916908315150217905550808061263c90615024565b9150506125a4565b506001601085604051612657919061494c565b908152602001604051809103902060006101000a81548160ff0219169083151502179055506001600e8660405161268e919061494c565b908152602001604051809103902060006101000a81548160ff0219169083151502179055506000604051806101200160405280600c5481526020018781526020018681526020013373ffffffffffffffffffffffffffffffffffffffff1681526020013373ffffffffffffffffffffffffffffffffffffffff168152602001600073ffffffffffffffffffffffffffffffffffffffff1681526020018581526020016000815260200160011515815250905080600d6000600c54815260200190815260200160002060008201518160000155602082015181600101908051906020019061277c929190613bed565b506040820151816002019080519060200190612799929190613bed565b5060608201518160030160006101000a81548173ffffffffffffffffffffffffffffffffffffffff021916908373ffffffffffffffffffffffffffffffffffffffff16021790555060808201518160040160006101000a81548173ffffffffffffffffffffffffffffffffffffffff021916908373ffffffffffffffffffffffffffffffffffffffff16021790555060a08201518160050160006101000a81548173ffffffffffffffffffffffffffffffffffffffff021916908373ffffffffffffffffffffffffffffffffffffffff16021790555060c0820151816006015560e082015181600701556101008201518160080160006101000a81548160ff021916908315150217905550905050505050505050565b6000806128ba610b51565b90508091505090565b600a80546128d090614ff2565b80601f01602080910402602001604051908101604052809291908181526020018280546128fc90614ff2565b80156129495780601f1061291e57610100808354040283529160200191612949565b820191906000526020600020905b81548152906001019060200180831161292c57829003601f168201915b505050505081565b6000600560008473ffffffffffffffffffffffffffffffffffffffff1673ffffffffffffffffffffffffffffffffffffffff16815260200190815260200160002060008373ffffffffffffffffffffffffffffffffffffffff1673ffffffffffffffffffffffffffffffffffffffff16815260200190815260200160002060009054906101000a900460ff16905092915050565b60006129fb82600261328790919063ffffffff16565b9050919050565b600033905090565b816004600083815260200190815260200160002060006101000a81548173ffffffffffffffffffffffffffffffffffffffff021916908373ffffffffffffffffffffffffffffffffffffffff160217905550808273ffffffffffffffffffffffffffffffffffffffff16612a7d836118c2565b73ffffffffffffffffffffffffffffffffffffffff167f8c5be1e5ebec7d5bd14f71427d1e84f3dd0314c0f7b2291e5b200ac8c7c3b92560405160405180910390a45050565b6000612ad1826000016132a1565b9050919050565b6000612ae3826129e5565b612b22576040517f08c379a0000000000000000000000000000000000000000000000000000000008152600401612b1990614aeb565b60405180910390fd5b6000612b2d836118c2565b90508073ffffffffffffffffffffffffffffffffffffffff168473ffffffffffffffffffffffffffffffffffffffff161480612b9c57508373ffffffffffffffffffffffffffffffffffffffff16612b848461099d565b73ffffffffffffffffffffffffffffffffffffffff16145b80612bad5750612bac8185612951565b5b91505092915050565b8273ffffffffffffffffffffffffffffffffffffffff16612bd6826118c2565b73ffffffffffffffffffffffffffffffffffffffff1614612c2c576040517f08c379a0000000000000000000000000000000000000000000000000000000008152600401612c2390614bcb565b60405180910390fd5b600073ffffffffffffffffffffffffffffffffffffffff168273ffffffffffffffffffffffffffffffffffffffff161415612c9c576040517f08c379a0000000000000000000000000000000000000000000000000000000008152600401612c9390614a8b565b60405180910390fd5b612ca78383836132b2565b612cb2600082612a0a565b612d0381600160008673ffffffffffffffffffffffffffffffffffffffff1673ffffffffffffffffffffffffffffffffffffffff1681526020019081526020016000206132b790919063ffffffff16565b50612d5581600160008573ffffffffffffffffffffffffffffffffffffffff1673ffffffffffffffffffffffffffffffffffffffff1681526020019081526020016000206132d190919063ffffffff16565b50612d6c818360026132eb9092919063ffffffff16565b50808273ffffffffffffffffffffffffffffffffffffffff168473ffffffffffffffffffffffffffffffffffffffff167fddf252ad1be2c89b69c2b068fc378daa952ba7f163c4a11628f55a4df523b3ef60405160405180910390a4505050565b6000612ddc8360000183613320565b60019004905092915050565b600080600080612dfb86600001866133ba565b91509150816001900481600190049350935050509250929050565b6000612e2984600001846001028461346a565b6001900490509392505050565b6000612e4482600001613531565b9050919050565b612e56848484612bb6565b612e6284848484613542565b612ea1576040517f08c379a0000000000000000000000000000000000000000000000000000000008152600401612e9890614a4b565b60405180910390fd5b50505050565b60606000821415612eef576040518060400160405280600181526020017f30000000000000000000000000000000000000000000000000000000000000008152509050613080565b600082905060005b60008214612f21578080612f0a90615024565b915050600a82612f1a9190614ead565b9150612ef7565b60008167ffffffffffffffff811115612f63577f4e487b7100000000000000000000000000000000000000000000000000000000600052604160045260246000fd5b6040519080825280601f01601f191660200182016040528015612f955781602001600182028036833780820191505090505b5090506000600183612fa79190614ede565b90508593505b6000841461307857600a84612fc2919061506d565b6030612fce9190614e57565b7f010000000000000000000000000000000000000000000000000000000000000002828280612ffc90614fc8565b935081518110613035577f4e487b7100000000000000000000000000000000000000000000000000000000600052603260045260246000fd5b60200101907effffffffffffffffffffffffffffffffffffffffffffffffffffffffffffff1916908160001a905350600a846130719190614ead565b9350612fad565b819450505050505b919050565b600073ffffffffffffffffffffffffffffffffffffffff168273ffffffffffffffffffffffffffffffffffffffff1614156130f5576040517f08c379a00000000000000000000000000000000000000000000000000000000081526004016130ec90614b6b565b60405180910390fd5b6130fe816129e5565b1561313e576040517f08c379a000000000000000000000000000000000000000000000000000000000815260040161313590614a6b565b60405180910390fd5b61314a600083836132b2565b61319b81600160008573ffffffffffffffffffffffffffffffffffffffff1673ffffffffffffffffffffffffffffffffffffffff1681526020019081526020016000206132d190919063ffffffff16565b506131b2818360026132eb9092919063ffffffff16565b50808273ffffffffffffffffffffffffffffffffffffffff16600073ffffffffffffffffffffffffffffffffffffffff167fddf252ad1be2c89b69c2b068fc378daa952ba7f163c4a11628f55a4df523b3ef60405160405180910390a45050565b61321c826129e5565b61325b576040517f08c379a000000000000000000000000000000000000000000000000000000000815260040161325290614bab565b60405180910390fd5b80600860008481526020019081526020016000209080519060200190613282929190613bed565b505050565b600061329983600001836001026136de565b905092915050565b600081600001805490509050919050565b505050565b60006132c98360000183600102613701565b905092915050565b60006132e3836000018360010261388b565b905092915050565b600061331784600001846001028473ffffffffffffffffffffffffffffffffffffffff166001026138fb565b90509392505050565b60008183600001805490501161336b576040517f08c379a000000000000000000000000000000000000000000000000000000000815260040161336290614a2b565b60405180910390fd5b8260000182815481106133a7577f4e487b7100000000000000000000000000000000000000000000000000000000600052603260045260246000fd5b9060005260206000200154905092915050565b60008082846000018054905011613406576040517f08c379a00000000000000000000000000000000000000000000000000000000081526004016133fd90614b4b565b60405180910390fd5b6000846000018481548110613444577f4e487b7100000000000000000000000000000000000000000000000000000000600052603260045260246000fd5b906000526020600020906002020190508060000154816001015492509250509250929050565b600080846001016000858152602001908152602001600020549050600081141583906134cc576040517f08c379a00000000000000000000000000000000000000000000000000000000081526004016134c39190614a09565b60405180910390fd5b50846000016001826134de9190614ede565b81548110613515577f4e487b7100000000000000000000000000000000000000000000000000000000600052603260045260246000fd5b9060005260206000209060020201600101549150509392505050565b600081600001805490509050919050565b60006135638473ffffffffffffffffffffffffffffffffffffffff16613a0d565b61357057600190506136d6565b600061365363150b7a027c0100000000000000000000000000000000000000000000000000000000026135a1612a02565b8887876040516024016135b794939291906149a2565b604051602081830303815290604052907bffffffffffffffffffffffffffffffffffffffffffffffffffffffff19166020820180517bffffffffffffffffffffffffffffffffffffffffffffffffffffffff83818316178352505050506040518060600160405280603281526020016151c8603291398773ffffffffffffffffffffffffffffffffffffffff16613a209092919063ffffffff16565b905060008180602001905181019061366b9190613fe3565b905063150b7a027c0100000000000000000000000000000000000000000000000000000000027bffffffffffffffffffffffffffffffffffffffffffffffffffffffff1916817bffffffffffffffffffffffffffffffffffffffffffffffffffffffff191614925050505b949350505050565b600080836001016000848152602001908152602001600020541415905092915050565b6000808360010160008481526020019081526020016000205490506000811461387f5760006001826137339190614ede565b905060006001866000018054905061374b9190614ede565b9050600086600001828154811061378b577f4e487b7100000000000000000000000000000000000000000000000000000000600052603260045260246000fd5b90600052602060002001549050808760000184815481106137d5577f4e487b7100000000000000000000000000000000000000000000000000000000600052603260045260246000fd5b90600052602060002001819055506001836137f09190614e57565b8760010160008381526020019081526020016000208190555086600001805480613843577f4e487b7100000000000000000000000000000000000000000000000000000000600052603160045260246000fd5b60019003818190600052602060002001600090559055866001016000878152602001908152602001600020600090556001945050505050613885565b60009150505b92915050565b60006138978383613a38565b6138f05782600001829080600181540180825580915050600190039060005260206000200160009091909190915055826000018054905083600101600084815260200190815260200160002081905550600190506138f5565b600090505b92915050565b60008084600101600085815260200190815260200160002054905060008114156139a257846000016040518060400160405280868152602001858152509080600181540180825580915050600190039060005260206000209060020201600090919091909150600082015181600001556020820151816001015550508460000180549050856001016000868152602001908152602001600020819055506001915050613a06565b82856000016001836139b49190614ede565b815481106139eb577f4e487b7100000000000000000000000000000000000000000000000000000000600052603260045260246000fd5b90600052602060002090600202016001018190555060009150505b9392505050565b600080823b905060008111915050919050565b6060613a2f8484600085613a5b565b90509392505050565b600080836001016000848152602001908152602001600020541415905092915050565b6060823073ffffffffffffffffffffffffffffffffffffffff16311015613ab7576040517f08c379a0000000000000000000000000000000000000000000000000000000008152600401613aae90614acb565b60405180910390fd5b613ac085613a0d565b613aff576040517f08c379a0000000000000000000000000000000000000000000000000000000008152600401613af690614c4b565b60405180910390fd5b6000808673ffffffffffffffffffffffffffffffffffffffff168587604051613b28919061491c565b60006040518083038185875af1925050503d8060008114613b65576040519150601f19603f3d011682016040523d82523d6000602084013e613b6a565b606091505b5091509150613b7a828286613b86565b92505050949350505050565b60608315613b9657829050613be6565b600083511115613ba95782518084602001fd5b816040517f08c379a0000000000000000000000000000000000000000000000000000000008152600401613bdd9190614a09565b60405180910390fd5b9392505050565b828054613bf990614ff2565b90600052602060002090601f016020900481019282613c1b5760008555613c62565b82601f10613c3457805160ff1916838001178555613c62565b82800160010185558215613c62579182015b82811115613c61578251825591602001919060010190613c46565b5b509050613c6f9190613c73565b5090565b5b80821115613c8c576000816000905550600101613c74565b5090565b6000613ca3613c9e84614da9565b614d78565b905082815260208101848484011115613cbb57600080fd5b613cc6848285614f86565b509392505050565b6000613ce1613cdc84614dd9565b614d78565b905082815260208101848484011115613cf957600080fd5b613d04848285614f86565b509392505050565b600081359050613d1b8161516b565b92915050565b60008083601f840112613d3357600080fd5b8235905067ffffffffffffffff811115613d4c57600080fd5b602083019150836020820283011115613d6457600080fd5b9250929050565b600081359050613d7a81615182565b92915050565b600081359050613d8f81615199565b92915050565b600081519050613da481615199565b92915050565b600082601f830112613dbb57600080fd5b8135613dcb848260208601613c90565b91505092915050565b600082601f830112613de557600080fd5b8135613df5848260208601613cce565b91505092915050565b600081359050613e0d816151b0565b92915050565b600060208284031215613e2557600080fd5b6000613e3384828501613d0c565b91505092915050565b60008060408385031215613e4f57600080fd5b6000613e5d85828601613d0c565b9250506020613e6e85828601613d0c565b9150509250929050565b600080600060608486031215613e8d57600080fd5b6000613e9b86828701613d0c565b9350506020613eac86828701613d0c565b9250506040613ebd86828701613dfe565b9150509250925092565b60008060008060808587031215613edd57600080fd5b6000613eeb87828801613d0c565b9450506020613efc87828801613d0c565b9350506040613f0d87828801613dfe565b925050606085013567ffffffffffffffff811115613f2a57600080fd5b613f3687828801613daa565b91505092959194509250565b60008060408385031215613f5557600080fd5b6000613f6385828601613d0c565b9250506020613f7485828601613d6b565b9150509250929050565b60008060408385031215613f9157600080fd5b6000613f9f85828601613d0c565b9250506020613fb085828601613dfe565b9150509250929050565b600060208284031215613fcc57600080fd5b6000613fda84828501613d80565b91505092915050565b600060208284031215613ff557600080fd5b600061400384828501613d95565b91505092915050565b60006020828403121561401e57600080fd5b600082013567ffffffffffffffff81111561403857600080fd5b61404484828501613dd4565b91505092915050565b60008060008060006080868803121561406557600080fd5b600086013567ffffffffffffffff81111561407f57600080fd5b61408b88828901613dd4565b955050602086013567ffffffffffffffff8111156140a857600080fd5b6140b488828901613dd4565b94505060406140c588828901613dfe565b935050606086013567ffffffffffffffff8111156140e257600080fd5b6140ee88828901613d21565b92509250509295509295909350565b60006020828403121561410f57600080fd5b600061411d84828501613dfe565b91505092915050565b6000806040838503121561413957600080fd5b600061414785828601613dfe565b925050602061415885828601613dfe565b9150509250929050565b61416b81614f12565b82525050565b61417a81614f24565b82525050565b600061418b82614e09565b6141958185614e1f565b93506141a5818560208601614f95565b6141ae8161515a565b840191505092915050565b60006141c482614e09565b6141ce8185614e30565b93506141de818560208601614f95565b80840191505092915050565b60006141f68385614e4c565b9350614203838584614f86565b82840190509392505050565b600061421a82614e14565b6142248185614e3b565b9350614234818560208601614f95565b61423d8161515a565b840191505092915050565b600061425382614e14565b61425d8185614e4c565b935061426d818560208601614f95565b80840191505092915050565b6000614286602283614e3b565b91507f456e756d657261626c655365743a20696e646578206f7574206f6620626f756e60008301527f64730000000000000000000000000000000000000000000000000000000000006020830152604082019050919050565b60006142ec603283614e3b565b91507f4552433732313a207472616e7366657220746f206e6f6e20455243373231526560008301527f63656976657220696d706c656d656e74657200000000000000000000000000006020830152604082019050919050565b6000614352601c83614e3b565b91507f4552433732313a20746f6b656e20616c7265616479206d696e746564000000006000830152602082019050919050565b6000614392602483614e3b565b91507f4552433732313a207472616e7366657220746f20746865207a65726f2061646460008301527f72657373000000000000000000000000000000000000000000000000000000006020830152604082019050919050565b60006143f8601983614e3b565b91507f4552433732313a20617070726f766520746f2063616c6c6572000000000000006000830152602082019050919050565b6000614438602683614e3b565b91507f416464726573733a20696e73756666696369656e742062616c616e636520666f60008301527f722063616c6c00000000000000000000000000000000000000000000000000006020830152604082019050919050565b600061449e602c83614e3b565b91507f4552433732313a206f70657261746f7220717565727920666f72206e6f6e657860008301527f697374656e7420746f6b656e00000000000000000000000000000000000000006020830152604082019050919050565b6000614504603883614e3b565b91507f4552433732313a20617070726f76652063616c6c6572206973206e6f74206f7760008301527f6e6572206e6f7220617070726f76656420666f7220616c6c00000000000000006020830152604082019050919050565b600061456a602a83614e3b565b91507f4552433732313a2062616c616e636520717565727920666f7220746865207a6560008301527f726f2061646472657373000000000000000000000000000000000000000000006020830152604082019050919050565b60006145d0602283614e3b565b91507f456e756d657261626c654d61703a20696e646578206f7574206f6620626f756e60008301527f64730000000000000000000000000000000000000000000000000000000000006020830152604082019050919050565b6000614636602083614e3b565b91507f4552433732313a206d696e7420746f20746865207a65726f20616464726573736000830152602082019050919050565b6000614676602c83614e3b565b91507f4552433732313a20617070726f76656420717565727920666f72206e6f6e657860008301527f697374656e7420746f6b656e00000000000000000000000000000000000000006020830152604082019050919050565b60006146dc602c83614e3b565b91507f4552433732314d657461646174613a2055524920736574206f66206e6f6e657860008301527f697374656e7420746f6b656e00000000000000000000000000000000000000006020830152604082019050919050565b6000614742602983614e3b565b91507f4552433732313a207472616e73666572206f6620746f6b656e2074686174206960008301527f73206e6f74206f776e00000000000000000000000000000000000000000000006020830152604082019050919050565b60006147a8602f83614e3b565b91507f4552433732314d657461646174613a2055524920717565727920666f72206e6f60008301527f6e6578697374656e7420746f6b656e00000000000000000000000000000000006020830152604082019050919050565b600061480e602183614e3b565b91507f4552433732313a20617070726f76616c20746f2063757272656e74206f776e6560008301527f72000000000000000000000000000000000000000000000000000000000000006020830152604082019050919050565b6000614874603183614e3b565b91507f4552433732313a207472616e736665722063616c6c6572206973206e6f74206f60008301527f776e6572206e6f7220617070726f7665640000000000000000000000000000006020830152604082019050919050565b60006148da601d83614e3b565b91507f416464726573733a2063616c6c20746f206e6f6e2d636f6e74726163740000006000830152602082019050919050565b61491681614f7c565b82525050565b600061492882846141b9565b915081905092915050565b60006149408284866141ea565b91508190509392505050565b60006149588284614248565b915081905092915050565b600061496f8285614248565b915061497b8284614248565b91508190509392505050565b600060208201905061499c6000830184614162565b92915050565b60006080820190506149b76000830187614162565b6149c46020830186614162565b6149d1604083018561490d565b81810360608301526149e38184614180565b905095945050505050565b6000602082019050614a036000830184614171565b92915050565b60006020820190508181036000830152614a23818461420f565b905092915050565b60006020820190508181036000830152614a4481614279565b9050919050565b60006020820190508181036000830152614a64816142df565b9050919050565b60006020820190508181036000830152614a8481614345565b9050919050565b60006020820190508181036000830152614aa481614385565b9050919050565b60006020820190508181036000830152614ac4816143eb565b9050919050565b60006020820190508181036000830152614ae48161442b565b9050919050565b60006020820190508181036000830152614b0481614491565b9050919050565b60006020820190508181036000830152614b24816144f7565b9050919050565b60006020820190508181036000830152614b448161455d565b9050919050565b60006020820190508181036000830152614b64816145c3565b9050919050565b60006020820190508181036000830152614b8481614629565b9050919050565b60006020820190508181036000830152614ba481614669565b9050919050565b60006020820190508181036000830152614bc4816146cf565b9050919050565b60006020820190508181036000830152614be481614735565b9050919050565b60006020820190508181036000830152614c048161479b565b9050919050565b60006020820190508181036000830152614c2481614801565b9050919050565b60006020820190508181036000830152614c4481614867565b9050919050565b60006020820190508181036000830152614c64816148cd565b9050919050565b6000602082019050614c80600083018461490d565b92915050565b600061012082019050614c9c600083018c61490d565b8181036020830152614cae818b61420f565b90508181036040830152614cc2818a61420f565b9050614cd16060830189614162565b614cde6080830188614162565b614ceb60a0830187614162565b614cf860c083018661490d565b614d0560e083018561490d565b614d13610100830184614171565b9a9950505050505050505050565b60008083356001602003843603038112614d3a57600080fd5b80840192508235915067ffffffffffffffff821115614d5857600080fd5b602083019250600182023603831315614d7057600080fd5b509250929050565b6000604051905081810181811067ffffffffffffffff82111715614d9f57614d9e61512b565b5b8060405250919050565b600067ffffffffffffffff821115614dc457614dc361512b565b5b601f19601f8301169050602081019050919050565b600067ffffffffffffffff821115614df457614df361512b565b5b601f19601f8301169050602081019050919050565b600081519050919050565b600081519050919050565b600082825260208201905092915050565b600081905092915050565b600082825260208201905092915050565b600081905092915050565b6000614e6282614f7c565b9150614e6d83614f7c565b9250827fffffffffffffffffffffffffffffffffffffffffffffffffffffffffffffffff03821115614ea257614ea161509e565b5b828201905092915050565b6000614eb882614f7c565b9150614ec383614f7c565b925082614ed357614ed26150cd565b5b828204905092915050565b6000614ee982614f7c565b9150614ef483614f7c565b925082821015614f0757614f0661509e565b5b828203905092915050565b6000614f1d82614f5c565b9050919050565b60008115159050919050565b60007fffffffff0000000000000000000000000000000000000000000000000000000082169050919050565b600073ffffffffffffffffffffffffffffffffffffffff82169050919050565b6000819050919050565b82818337600083830152505050565b60005b83811015614fb3578082015181840152602081019050614f98565b83811115614fc2576000848401525b50505050565b6000614fd382614f7c565b91506000821415614fe757614fe661509e565b5b600182039050919050565b6000600282049050600182168061500a57607f821691505b6020821081141561501e5761501d6150fc565b5b50919050565b600061502f82614f7c565b91507fffffffffffffffffffffffffffffffffffffffffffffffffffffffffffffffff8214156150625761506161509e565b5b600182019050919050565b600061507882614f7c565b915061508383614f7c565b925082615093576150926150cd565b5b828206905092915050565b7f4e487b7100000000000000000000000000000000000000000000000000000000600052601160045260246000fd5b7f4e487b7100000000000000000000000000000000000000000000000000000000600052601260045260246000fd5b7f4e487b7100000000000000000000000000000000000000000000000000000000600052602260045260246000fd5b7f4e487b7100000000000000000000000000000000000000000000000000000000600052604160045260246000fd5b6000601f19601f8301169050919050565b61517481614f12565b811461517f57600080fd5b50565b61518b81614f24565b811461519657600080fd5b50565b6151a281614f30565b81146151ad57600080fd5b50565b6151b981614f7c565b81146151c457600080fd5b5056fe4552433732313a207472616e7366657220746f206e6f6e20455243373231526563656976657220696d706c656d656e7465724552433732313a206f776e657220717565727920666f72206e6f6e6578697374656e7420746f6b656ea264697066735822122076732700aab8874af529cacd90cd1cf0073eb14e0eb3fd511e72870563585b7864736f6c63430008000033",
  "immutableReferences": {},
  "source": "// SPDX-License-Identifier: MIT\r\npragma solidity ^0.8.0;\r\npragma abicoder v2;\r\n\r\n// import ERC721 iterface\r\nimport './ERC721.sol';\r\n\r\n//DIGI ART CONTRACT\r\ncontract DigiArt is ERC721 {\r\n\r\n  string public collectionName;\r\n  string public collectionNameSymbol;\r\n  uint256 public artCounter;\r\n\r\n   struct ArtPiece {\r\n    uint256 tokenId;\r\n    string tokenName;\r\n    string tokenURI;\r\n    address mintedBy;\r\n    address currentOwner;\r\n    address previousOwner;\r\n    uint256 price;\r\n    uint256 numberOfTransfers;\r\n    bool forSale;\r\n  }\r\n\r\n  mapping(uint256 => ArtPiece) public allArtPieces;\r\n  mapping(string => bool) public tokenNameExists;\r\n  mapping(string => bool) public colorExists;\r\n  mapping(string => bool) public tokenURIExists;\r\n\r\n  constructor() ERC721(\"Art Collection\", \"DA\") {\r\n    collectionName = name();\r\n    collectionNameSymbol = symbol();\r\n  }\r\n\r\n  function mintNFT(string memory _name, string memory _tokenURI, uint256 _price, string[] calldata _colors) external {\r\n    require(msg.sender != address(0));\r\n    artCounter ++;\r\n    require(!_exists(artCounter));\r\n\r\n    for(uint i=0; i<_colors.length; i++) {\r\n      require(!colorExists[_colors[i]]);\r\n    }\r\n    require(!tokenURIExists[_tokenURI]);\r\n    require(!tokenNameExists[_name]);\r\n\r\n    _mint(msg.sender, artCounter);\r\n    _setTokenURI(artCounter, _tokenURI);\r\n\r\n    for (uint i=0; i<_colors.length; i++) {\r\n      colorExists[_colors[i]] = true;\r\n    }\r\n    tokenURIExists[_tokenURI] = true;\r\n    tokenNameExists[_name] = true;\r\n    ArtPiece memory newToken = ArtPiece(\r\n    artCounter,\r\n    _name,\r\n    _tokenURI,\r\n    msg.sender,\r\n    msg.sender,\r\n    address(0),\r\n    _price,\r\n    0,\r\n    true);\r\n    allArtPieces[artCounter] = newToken;\r\n  }\r\n\r\n  function getTokenOwner(uint256 _tokenId) public view returns(address) {\r\n    address _tokenOwner = ownerOf(_tokenId);\r\n    return _tokenOwner;\r\n  }\r\n  \r\n  function getTokenMetaData(uint _tokenId) public view returns(string memory) {\r\n    string memory tokenMetaData = tokenURI(_tokenId);\r\n    return tokenMetaData;\r\n  }\r\n\r\n  function getNumberOfTokensMinted() public view returns(uint256) {\r\n    uint256 totalNumberOfTokensMinted = totalSupply();\r\n    return totalNumberOfTokensMinted;\r\n  }\r\n\r\n  function getTotalNumberOfTokensOwnedByAnAddress(address _owner) public view returns(uint256) {\r\n    uint256 totalNumberOfTokensOwned = balanceOf(_owner);\r\n    return totalNumberOfTokensOwned;\r\n  }\r\n\r\n  function getTokenExists(uint256 _tokenId) public view returns(bool) {\r\n    bool tokenExists = _exists(_tokenId);\r\n    return tokenExists;\r\n  }\r\n\r\n  function buyToken(uint256 _tokenId) public payable {\r\n    require(msg.sender != address(0));\r\n    require(_exists(_tokenId));\r\n    address tokenOwner = ownerOf(_tokenId);\r\n    require(tokenOwner != address(0));\r\n    require(tokenOwner != msg.sender);\r\n    ArtPiece memory newToken = allArtPieces[_tokenId];\r\n    require(msg.value >= newToken.price);\r\n    require(newToken.forSale);\r\n    _transfer(tokenOwner, msg.sender, _tokenId);\r\n    address payable sendTo = payable(newToken.currentOwner);\r\n    sendTo.transfer(msg.value);\r\n    newToken.previousOwner = newToken.currentOwner;\r\n    newToken.currentOwner = msg.sender;\r\n    newToken.numberOfTransfers += 1;\r\n    allArtPieces[_tokenId] = newToken;\r\n  }\r\n\r\n  function changeTokenPrice(uint256 _tokenId, uint256 _newPrice) public {\r\n    require(msg.sender != address(0));\r\n    require(_exists(_tokenId));\r\n    address tokenOwner = ownerOf(_tokenId);\r\n    require(tokenOwner == msg.sender);\r\n    ArtPiece memory newToken = allArtPieces[_tokenId];\r\n    newToken.price = _newPrice;\r\n    allArtPieces[_tokenId] = newToken;\r\n  }\r\n\r\n  function toggleForSale(uint256 _tokenId) public {\r\n    require(msg.sender != address(0));\r\n    require(_exists(_tokenId));\r\n    address tokenOwner = ownerOf(_tokenId);\r\n    require(tokenOwner == msg.sender);\r\n    ArtPiece memory newToken = allArtPieces[_tokenId];\r\n    if(newToken.forSale) {\r\n      newToken.forSale = false;\r\n    } else {\r\n      newToken.forSale = true;\r\n    }\r\n    allArtPieces[_tokenId] = newToken;\r\n  }\r\n}",
  "sourcePath": "C:/Users/Kairavi/OneDrive/Desktop/capstone/cap-project/contracts/DigiArt.sol",
  "compiler": {
    "name": "solc",
    "version": "0.8.0+commit.c7dfd78e.Linux.g++"
  },
  "schemaVersion": "3.4.1",
  "updatedAt": "2021-08-21T07:25:16.312Z",
  "networkType": "ethereum",
  "devdoc": {
    "kind": "dev",
    "methods": {
      "approve(address,uint256)": {
        "details": "See {IERC721-approve}."
      },
      "balanceOf(address)": {
        "details": "See {IERC721-balanceOf}."
      },
      "baseURI()": {
        "details": "Returns the base URI set via {_setBaseURI}. This will be automatically added as a prefix in {tokenURI} to each token's URI, or to the token ID if no specific URI is set for that token ID."
      },
      "getApproved(uint256)": {
        "details": "See {IERC721-getApproved}."
      },
      "isApprovedForAll(address,address)": {
        "details": "See {IERC721-isApprovedForAll}."
      },
      "name()": {
        "details": "See {IERC721Metadata-name}."
      },
      "ownerOf(uint256)": {
        "details": "See {IERC721-ownerOf}."
      },
      "safeTransferFrom(address,address,uint256)": {
        "details": "See {IERC721-safeTransferFrom}."
      },
      "safeTransferFrom(address,address,uint256,bytes)": {
        "details": "See {IERC721-safeTransferFrom}."
      },
      "setApprovalForAll(address,bool)": {
        "details": "See {IERC721-setApprovalForAll}."
      },
      "supportsInterface(bytes4)": {
        "details": "See {IERC165-supportsInterface}. Time complexity O(1), guaranteed to always use less than 30 000 gas."
      },
      "symbol()": {
        "details": "See {IERC721Metadata-symbol}."
      },
      "tokenByIndex(uint256)": {
        "details": "See {IERC721Enumerable-tokenByIndex}."
      },
      "tokenOfOwnerByIndex(address,uint256)": {
        "details": "See {IERC721Enumerable-tokenOfOwnerByIndex}."
      },
      "tokenURI(uint256)": {
        "details": "See {IERC721Metadata-tokenURI}."
      },
      "totalSupply()": {
        "details": "See {IERC721Enumerable-totalSupply}."
      },
      "transferFrom(address,address,uint256)": {
        "details": "See {IERC721-transferFrom}."
      }
    },
    "version": 1
  },
  "userdoc": {
    "kind": "user",
    "methods": {},
    "version": 1
  }
}